:020000040000FA
:10A00000680C0020B9A10000DFA10000D5A000006D
:10A010000000000000000000000000000000000040
:10A02000000000000000000000000000E3A10000AC
:10A030000000000000000000E5A10000E7A1000012
:10A04000E9A10000E9A10000E9A10000E9A10000E8
:10A05000E9A10000E9A10000E9A10000E9A10000D8
:10A060001FB40000E9A10000E9A10000E9A100007F
:10A0700077B400009DB40000E9A10000E9A1000050
:10A08000E9A10000E9A10000E9A10000E9A10000A8
:10A09000E9A10000E9A10000E9A10000E9A1000098
:10A0A000E9A10000E9A10000E9A10000E9A1000088
:10A0B000E9A10000ABB50000E9A10000E9A10000A2
:10A0C0000348854605F0CAF80048004761DE0000F5
:10A0D000680C002004207146084202D0EFF309808A
:10A0E00001E0EFF308807146004A104715A2000016
:10A0F000F8B5294D28692849440728A00068009030
:10A10000640F00204031096805221204114216D163
:10A11000080301D5224800E022488A030FD40A042C
:10A12000920F6B469B5CCA058904D20DC90E891C2F
:10A130008008921C5943504304F072FE80001A4E6E
:10A14000022CB06002D01949A0000858296A0907FA
:10A15000090F491C04F064FE154930604A1080184C
:10A1600004F05EFE7060F8BD10B559211148162349
:10A1700088220160036002600468002CF9D006495F
:10A180000B680722120593430B600B6813430B60A7
:10A190000021016010BD0000000200400102020425
:10A1A000001BB7000048E80100000020700101001A
:10A1B00040420F00000100400C480D4901600D496C
:10A1C00001600D4901600D4A0D4911600D4A0E49AB
:10A1D0001160002101600D4880470D480047FEE7EF
:10A1E000FEE7FEE7FEE7FEE7FEE7000000010040B5
:10A1F0005900000016000000880000002400004004
:10A20000A55A0000800200400100000069A1000082
:10A21000C1A0000004462AA005F0D6F8204600F0B0
:10A220001FF8FEE72C4880694004C00F70472A4899
:10A230008069C000C00F704710B500F034F810BD41
:10A2400010B5044600F02FF8204610BD2248816961
:10A250004904FCD40068C0B270470020C043704776
:10A2600010B5044601681DA005F0AEF81EA0616897
:10A2700005F0AAF81FA0A16805F0A6F820A0E168E3
:10A2800005F0A2F821A0216905F09EF822A06169DD
:10A2900005F09AF823A0A16905F096F824A0E169D9
:10A2A00005F092F810BD0C498A691202FCD40860CE
:10A2B0000A2804D188690002FCD40D200860704788
:10A2C000496E2048617264204661756C7420486153
:10A2D0006E646C65720A0000000007407230202036
:10A2E0003D20307825780A00723120203D203078DA
:10A2F00025780A00723220203D20307825780A0027
:10A30000723320203D20307825780A0072313220C7
:10A310003D20307825780A006C7220203D2030786E
:10A3200025780A00706320203D20307825780A00C7
:10A33000707372203D20307825780A0008B5EAA0B5
:10A340000068EA49009009680020052212041142C1
:10A3500016D1080301D5E64800E0E6488A030FD489
:10A360000A04920F6B469B5CCA058904D20DC90E84
:10A37000891C8008921C5943504304F051FD800011
:10A3800008BDCA0102D501221204C2614A0503D5E3
:10A3900070228261082282610A0503D54269012385
:10A3A0001A4342618A0401D5D34A8261490401D526
:10A3B0001F214164704700214160704741680322BA
:10A3C000120391434160704742688A43426070477C
:10A3D0000169012252021143016141695210114386
:10A3E0004161416803221203114341607047426892
:10A3F0000A4342607047F0B587B00F460446002517
:10A400002E461822BD49684604F020FDB748BC49D5
:10A410004038BC4A8C4205D14369006A5B015D0F3C
:10A42000000A0FE0B84B9C4206D14369006A5B000A
:10A430005D0F0004060F07E0944205D1C369006B6D
:10A440005B015D0F0607360F002020630320E060EC
:10A45000A068AE4B1840A060012D02D0042D04D09E
:10A460000DE0FFF76BFF019009E08C4201D09442B0
:10A4700002D100F094F901E000F09CF90490002F63
:10A480001BD0A90068464058711C04F0C9FC054661
:10A4900079084018394604F0C3FC9D49801E884263
:10A4A00007D9F9006818394604F0BAFC0009801E83
:10A4B00002E0032109070843606207B0F0BDF0B570
:10A4C0000027054601263846B6070CE0002302E0C7
:10A4D0005B1CB34209D2AC696404F9D4002F04D1E7
:10A4E0002B680B54401C9042F0D3F0BDFFB50F46D3
:10A4F000824987B0044600252E4618221831684646
:10A5000004F0A4FC79487E4940387E4A8C4205D14B
:10A510004369006A5B015D0F000A0FE07A4B9C42C1
:10A5200006D14369006A5B005D0F0004060F07E077
:10A53000944218D1C369006B5B015D0F0607360FAB
:10A54000012D02D0042D04D00DE0FFF7F7FE01909D
:10A5500009E08C4201D0944202D100F020F901E0E0
:10A5600000F028F90490002F1BD0A900684640583D
:10A57000711C04F055FC054679084018394604F072
:10A580004FFC6349801E884207D9F9006818394694
:10A5900004F046FC0009801E02E00321090708437D
:10A5A00060620A990998084310990843E0600BB06B
:10A5B000F0BD026A120A12020A43026241680122D5
:10A5C000D202114341607047F7B54C4986B004464A
:10A5D00000252E4618223031684604F037FC022749
:10A5E0002763424846494038464A8C4205D1436970
:10A5F000006A5B015D0F000A0FE0434B9C4206D1ED
:10A600004369006A5B005D0F0004060F07E0944297
:10A6100018D1C369006B5B015D0F0607360F012D72
:10A6200002D0042D04D00DE0FFF788FE019009E070
:10A630008C4201D0944202D100F0B1F801E000F068
:10A64000B9F804900798002811D0A900684640582E
:10A65000711C04F0E5FB0799C9004018079904F044
:10A66000DFFB00092A49801E884200D260620898F8
:10A670000028A06A07D020218843A062A06A38433E
:10A68000A06209B0F0BD40210843A062A06AB843AF
:10A69000F6E710B503230363C36A1E4C2340C3626D
:10A6A000C36A12060A431343C36210BDF0B5002704
:10A6B000054601263846B6070CE0002302E05B1C85
:10A6C000B34209D2AC692402F9D4002F04D10B5C47
:10A6D0002B60401C9042F0D1F0BD016BC908C9004D
:10A6E000091D01637047000001020204400200409E
:10A6F000001BB7000048E8010100000190010100C3
:10A700000000074000200740001007400FFFF0FF47
:10A71000FFFF0000FFF8FF00F748816840229143E7
:10A720008160704752010A4310210A43F2494031C7
:10A730000A62F1498A6840231A438A604A69702391
:10A740009A4302434A617047EC48006B80070AD184
:10A75000EB480169042211430161E7480168802246
:10A760001143016030BF7047E548016904229143FD
:10A770000161E148016880229143016030BF704768
:10A78000DD480068C00700D0DE487047DA4800683E
:10A79000800702D50120C00370470020704710B524
:10A7A000FFF7A6FCD448406B4107D748490F006823
:10A7B000C84010BD10B5FFF79BFCCF48406B40066A
:10A7C000410FD1480068C84010BD10B5FFF790FC9C
:10A7D000CD48006810BD10B5FFF78AFCCA48006874
:10A7E00010BD10B5C44B0446C849403305E00A46C5
:10A7F000491E002A01DC002010BD1A692046904342
:10A80000F5D1012010BDF8B58446BB480F46403055
:10A8100005691020B84C05402068042630432060AC
:10A820001020FFF7DEFF2069072108432061206A1E
:10A8300000090001384320622069884361460843CB
:10A840002061FFF755FC002D02D12068B043206045
:10A85000F8BD10B5A84C20694007400F02280AD166
:10A8600020680421084320601020FFF7BAFF206908
:10A87000072108432061A04840300168821311433A
:10A88000016010BDF0B587B00D460746FFF7E1FF48
:10A8900099489C4E0168002F25D004221143016085
:10A8A0001020FFF79EFF0120C004029098480390FB
:10A8B00002246007016809050A0F9649062A1CD080
:10A8C00000680005000F012817D0084685425FD8B0
:10A8D000914885425CD38D4211D804200490032016
:10A8E000AD0005900FE00122114301601046FFF713
:10A8F00078FF002003960290DAE78848E6E7022016
:10A9000004906D0005900026F64300200090019011
:10A910002146039804F084FA8149421881498A4209
:10A9200016D202220146804B5143CF187F4B9F42E3
:10A930000AD2A94201D94B1B00E06B1AB34203D2E1
:10A940001E000094019203D07949521C8A42E9D931
:10A95000641C212CDCD905980299800308430099D6
:10A960004A0201218902511A08430199891E0843AC
:10A970006149403108600420FFF733FF04990098D3
:10A980004143039804F04CFA0199484307B0F0BDE5
:10A99000002F15D067495848403001600420FFF768
:10A9A00020FF65A0006800905349002040310968ED
:10A9B000052212041142E9D1080303D5544802E0EC
:10A9C0005E49E8E730468A03E0D40A04920F6B46FA
:10A9D0009B5CCA058904D20DC90E891C8008921C93
:10A9E0005943504304F01CFA8000CFE7F8B5424EBB
:10A9F0000446403635691020054080060168090587
:10AA0000090F062925D000680005000F012820D075
:10AA10004B48844200D904464A48844200D2044646
:10AA2000354F38680421084338601020FFF7D9FEFD
:10AA30003869072108433861386A00090001386223
:10AA40003069C00707D061000020FFF71BFF0446F4
:10AA50000AE03D48DDE701206100C004FFF712FF76
:10AA6000356904461020054001210220FFF7CBFE86
:10AA7000002D03D139680420814339606008F8BD96
:10AA8000F0B5324B88B0F0CB009401ACE0C478CB89
:10AA900004AF78C7840A23061B0E0FD003039B0F55
:10AAA0009B0004ADEB58144D20355B19E5B28405CD
:10AAB000E40EA5401C68AC4314431C60420E5207D0
:10AAC00010D08200920F92006B469A580A4B1033B6
:10AAD000D21803015B0FC001C00E83401068984379
:10AAE0000843106008B0F0BD034A11693823994348
:10AAF000014311617047000000020040C0000040A7
:10AB000000ED00E00048E8010000002080F5200092
:10AB1000001BB70000D8B805C0320A0300449508EE
:10AB2000FF95E7FFFFB9DB00003E14F400A3E1113D
:10AB3000010200005EC20800010202045ECC0000B7
:10AB4000006CDC026019850100A24A04D8010100F2
:10AB500027490A6802430A60CCE725490A6882430C
:10AB60000A60C7E70EB523490EC900910192810F13
:10AB70008A00029369468A581D4951184A68C306DB
:10AB8000DB0E0120984002434A600EBD0EB5194904
:10AB90000C310EC900910192810F8A00029369461F
:10ABA0008A58134951184A68C306DB0E01209840A1
:10ABB00082434A600EBD70B50F4A00241461042818
:10ABC0000CD00B4D2B693826B34303432B615161E5
:10ABD0009461106903210843106170BD106904235A
:10ABE00018431061F3E704490020086182E7000080
:10ABF00000020040F801010000E000E0F0B5002391
:10AC000001273C469C400C4208D005685C000326A6
:10AC1000A640B5431646A640354305605B1C102B85
:10AC2000EFD3F0BD10B58369140E8C4023438361CC
:10AC3000C3691202120A8A401343C36110BD8269BC
:10AC400001238B409A438261C269024B8B409A4335
:10AC5000C26170470100010010B588B0044620228F
:10AC60006C49684604F0F2F86B4B6B4A6B48203332
:10AC7000944202D14069000A0BE09C4202D1406933
:10AC8000000B06E0664940698C4201D1000C00E0EF
:10AC9000000D4107490F022904D088006946085871
:10ACA00008B010BD944201D09C4202D1FFF777FD5D
:10ACB000F6E7FFF77FFDF3E7F7B517460646FFF720
:10ACC000CBFF054600244008B84201D8022008E026
:10ACD0003946284604F0A4F8040E02D0611C04F0A2
:10ACE0009FF80199214331607060641C6043014604
:10ACF000284604F095F8FEBD0021016041617047CF
:10AD0000F8B50C460646FFF7A7FF014600904548F8
:10AD10000027006804F084F8451C00203060706152
:10AD200041490098884205D87D20C000844205D260
:10AD3000044606E0642C01D2642402E08C4200D96F
:10AD40000C460098884208D80146384804F068F854
:10AD500001467D20C000604305E004F061F86043D7
:10AD6000070E02D0791C04F05BF8706001208007A8
:10AD700007433760002D02D000BF6D1EFCD1306844
:10AD80008001FCD4F8BD10B543691624A3430B43DE
:10AD9000134308210B43436110BD416908229143CD
:10ADA000416170474269520852000A43426101689A
:10ADB0000122120611430160704701680122120648
:10ADC0009143016070471449884202D112492031F1
:10ADD00001E013492031164A4A60002B01D020229D
:10ADE00000E000224A6113490160704701680122B6
:10ADF0009202914301607047026801239B049A43C9
:10AE00000A430260704702680B4B1A400A43026013
:10AE100070470000100201000000054000020040E1
:10AE2000001005400000002040420F0000CA9A3B7D
:10AE3000FFFFFF0000040040FFFED7FF70B504468F
:10AE4000FF34813465688030ED07002D15D1056829
:10AE500001263603354305600568ED04FCD46568BA
:10AE60000126354365602568354325600568F6028F
:10AE7000354305606568ED07FCD00468334D2C4010
:10AE80000C43144304604168436070BD0120800797
:10AE9000C26881100A43C260C2688A43C2607047B8
:10AEA00030B5FF23FF24F13301348030002909D06D
:10AEB00010290ED00268056821439D432A430A43A6
:10AEC000026030BD016805689D4329431143214359
:10AED00006E0016802689A431143FF2211321143D0
:10AEE000016030BD80300168FF22F1329143016082
:10AEF0007047CB0702228030002B02D00368134337
:10AF000003608B0702D5836813438360490702D52A
:10AF1000C1681143C1607047CB0702228030002B0B
:10AF200002D00368934303608B0702D58368934381
:10AF30008360490702D5C1689143C1607047803082
:10AF4000016A090A0902114301627047F3FBFFFF1E
:10AF50000121890748607047012080078069400609
:10AF6000C00F704701208007406870471E48006886
:10AF7000C007C017401C7047012080070068704759
:10AF80000120800781680122114381607047012000
:10AF90008007816802221143816070470121020EFF
:10AFA000890751188B680122824013438B6088689F
:10AFB00090438860704710B501229207936901247D
:10AFC0002343936193690824A343034393619069E6
:10AFD000931398430843906110BD01208007816955
:10AFE00049084900816170470001004097480168A5
:10AFF0004908490001607047002094492222CA6034
:10B00000012252054A60924A8A6001220A610A6955
:10B01000D207FCD10A68520605D5086840221043C1
:10B0200008600020C04370470346012100B500209E
:10B0300049058B4203D1FFF7DFFF002811D1834977
:10B040002222CA604B6001220A610A69D207FCD140
:10B050000A68520605D5086840221043086000209F
:10B06000C04300BD0246002078492323CB604A60DC
:10B0700001220A610A69D207FCD10A68520605D585
:10B0800008684022104308600020C0437047024611
:10B0900000206E492C23CB604A606E4A8A600122F0
:10B0A0000A610A69D207FCD10A68520605D5086808
:10B0B0004022104308600020C043704763490020CD
:10B0C0000968890700D5012070476048016801229E
:10B0D0001143016070475D490022CA604860012049
:10B0E00008610869C007FCD1886870475748406903
:10B0F0007047564902220028086801D0104300E03A
:10B10000904308607047514A2123D360506091609A
:10B11000012010611069C007FCD1704730B50446AA
:10B1200000204A4B6125DD605C60484C8034216022
:10B13000626001211961454940310A68D207FCD19A
:10B140000A68520605D508684022104308600020AE
:10B15000C04330BD30B5044603200B460025000532
:10B16000FFF7B9FF2060032B01D96D1E0CE0012B06
:10B1700003D93948FFF7AFFF6060022B04D9364886
:10B18000001DFFF7A8FFA060284630BDF3B50746B5
:10B1900000208446044610E0A500032000052E1878
:10B1A00079593046FFF7AFFF3046FFF794FF7959E2
:10B1B000884201D001208446641C01988442EBD36C
:10B1C0006046FCBD024610B50A43D20502D00020FD
:10B1D000C04310BD1D4B2D22DA60586099600124D8
:10B1E0001C611A4940310A68D207FCD10D22DA608D
:10B1F00058601C610868C007FCD1986810BD70B524
:10B2000003460020114CC0438022403422600F4A84
:10B210002825D56053609160012515612168C90713
:10B22000FCD10826D660536015612168C907FCD19E
:10B2300091680029F6D0936808498B4200D1906844
:10B240009168074B994200D1906870BD00C00040E2
:10B2500003AA5500A55AA55A04003000FFFF1FA1FC
:10B26000000010A10022FE4B04E00021491C99427D
:10B27000FCD3521C8242F8D3704770B5F94D0020C0
:10B28000A8600124EC60F74EC03E70603060F64864
:10B29000FFF7E8FFAC60EC607460346070BDF8B537
:10B2A00003F0A1FD0420FFF753FC1020FFF799FAEB
:10B2B00000210720FFF7A7FAEC48FFF753FC032112
:10B2C00000220906E948FFF7DBFBE94C2046FFF7BF
:10B2D00049FC0321002209072046FFF7D1FBFEF7B6
:10B2E00007FFA407E06BFF210904884333214904C9
:10B2F0004018E063A06B09020002000A4018A06336
:10B30000DC4D2846FFF72EFC0721002209022846C3
:10B31000FFF7B6FBD84800258570D84FC5700122CD
:10B32000D1063846FFF7C8FC38686110084338601A
:10B33000082003F051FDD24EE12149023046FFF7CB
:10B340005AF801213046FFF752F80C2003F044FD73
:10B35000CC4E4B21C9013046FFF74DF80121304654
:10B36000FFF745F80D2003F037FDC74E3046FFF7D5
:10B37000F9FB002261123046FFF782FBC34E002228
:10B380000F213046FFF73AFCA06BC149000C0004C6
:10B390004018A06370680F21090408437060BD481D
:10B3A00001260661BB4831468038FFF7A2FD1D200B
:10B3B00003F012FDB7480068B64930430860B3484F
:10B3C00001220F214030FFF719FC01220C21B24865
:10B3D000FFF714FC386820433860AC4C0122403C35
:10B3E0000E212046FFF70AFC032231212046FFF7F9
:10B3F00005FCA648032220214030FFF7FFFB032273
:10B400003021A548FFF7FAFBA4488560C660466076
:10B4100045610661A2480560FFF72FFFF8BD10B532
:10B4200096488168C907C90F24D001238360016849
:10B4300082031143016090490022086D002808D062
:10B44000486D401C4865CC6D641EA04201D90A6558
:10B450008B774878002807D00878002802D0401E53
:10B46000087001E04A700A70C87B401CC8734879B4
:10B47000C043487110BD10B5814801687E4C894AAF
:10B48000E36CD15409218902FEF77BFFE06C864909
:10B49000401CE064884200D9E16410BD70B5794871
:10B4A0000168CCB209218902FEF76BFF72480125C1
:10B4B000817A7E4A0B0003F0AEFF04030B15380AB5
:10B4C000242C04D114708572417A491C417270BDDC
:10B4D000417A5454491CC9B241720529F7D9022155
:10B4E000817270BDD178522916D0002113794D2B6D
:10B4F00014D0002319405379432B11D00023194055
:10B50000002300290ED003218172417A2C24545447
:10B51000491C4172836470BD0121E7E70123E9E71B
:10B520000123ECE78372437270BD417A5454491C85
:10B5300041720D2CF8D1816C491C81640129F3D929
:10B54000042181720571057370BD70B5514D0F23D3
:10B55000803D082200212846FFF770FC464C002061
:10B5600060734C49A0730868CA1410430860FF2038
:10B57000F530FFF777FE28684D4980B24D4E4843BD
:10B58000314603F04DFCA06668684B4980B24843E1
:10B59000314603F045FCE066A86830406066E86824
:10B5A00080B260633040206770BD3A490120086175
:10B5B00031494873704770B540A003F005FF30492A
:10B5C0000D200860C820FFF74DFE264C0020A0602B
:10B5D000E060324D8035686028607D200001FFF713
:10B5E00041FE0120A060E060686028603648FFF7F7
:10B5F00039FE7D20C000FFF735FE70BD30B500215B
:10B60000264A0C460123050601D5536000E054602C
:10B61000936094604006491C000EC9B20829F2D319
:10B6200030BD10B51D4C0020E0600420FFF7E6FFA0
:10B630000120E06010BD30B5FFF7E0FF0E4D686FF0
:10B640002C460002000E20342071FFF7D7FF686FF0
:10B650000004000E2071FFF7D1FF686FC0B235E023
:10B66000B80B000040490040480D0000103D805FCD
:10B67000913DC05F0200805E100000200000054088
:10B6800000000740001007401CFE43674040004098
:10B69000111100008030044040410040004800404B
:10B6A00000010040BF0000208A0200004104002089
:10B6B000C8190000FF0F0000A60E000041542B51D6
:10B6C0004944454143540000F82A00002071FFF727
:10B6D00095FF30BD10B5F94C0020E0600620FFF763
:10B6E0008DFF0120E06010BDF0B50546FFF7F2FFC9
:10B6F000F24E0020F0600220FFF79DFF0024F04F83
:10B7000004E0385DFFF77AFF641CE4B2AC42F8D382
:10B710000120F060FFF785FFF0BD0022E94B04E057
:10B720000021491C9942FCD3521C8242F8D3704735
:10B7300010B5FFF7CFFFE14C0020E0602020FFF7BD
:10B740007AFF0120E06010BDF0B53F277F04DE4C9A
:10B75000DB4E0546B8421CD16767FFF7E9FFFF20C3
:10B76000F530FFF7DAFFA06F010C3170010A71703C
:10B77000B070E06F010CF170010A317170712046F8
:10B7800020300178B171C079F0710A206767FFF746
:10B79000ABFFCE4FBD420ED16767FFF7C9FFFF2059
:10B7A000F530FFF7BAFFE06D3070206E70700A2040
:10B7B0006767FFF799FFF0BDFEB5C34F0020C4498E
:10B7C000C44CF8630A5C2254401CF8630F28F9D378
:10B7D0002C212154401CF863B87901282AD000217B
:10B7E000B948203000904079014325D00025B44B62
:10B7F0003D64B4333A6CF86B995C21540D2905D043
:10B80000521C401C3A64F863142AF3D3F86B2C21C1
:10B810002154401CAA4B3D64CD33F8633A6C995CCB
:10B8200021540D2905D0521C401C3A64F8630A2AA1
:10B83000F4D3C2E00121D3E70020A64D3864963549
:10B84000FB7A06E0F96B2A5C6254491C401CF963E0
:10B8500038649842F6D3FD6B2C269B4966552931F6
:10B8600048786D1C605588786D1C60556D1C665558
:10B8700000980A2140786D1C03F0D2FA6219303129
:10B8800051700A2103F0CCFA30316155AD1C8B4860
:10B89000665580304069302108436D1C60556D1C31
:10B8A0008D48665540696D1C084360556D1C665592
:10B8B0000A216D1CB86E03F0B3FA6219303101929F
:10B8C000D1700A2103F0ACFA019A303191700A214B
:10B8D00003F0A6FA019A303151700A2103F0A0FA60
:10B8E000303161552D1D66550A216D1CF86E03F02F
:10B8F00097FA621930310192D1700A2103F090FA5F
:10B90000019A303191700A2103F08AFA019A30319C
:10B9100051700A21F86203F083FA303161552D1D10
:10B9200066556D1CFD63009800780090002801D0DA
:10B930004D2000E04C2060552C206D1C60550A21E4
:10B940006D1C786E03F06CFA66193031F1700A21C3
:10B9500003F066FA3031B1700A2103F061FA303138
:10B9600071700A21F86203F05BFA303161552C20C6
:10B970002D1D60556D1CFD630098002804D0B86F24
:10B98000803078634002000C0A21F86203F048FA24
:10B9900066193031F1700A2103F042FA3031B1708A
:10B9A0000A2103F03DFA303171700A21F86203F088
:10B9B00037FA303161552D1DFD63F86B2C21215470
:10B9C0005F21401C2154401CF86338640020B87289
:10B9D0007872B8643871FEBD70B50020374A012313
:10B9E00001460446FE25936094601668002E01D03F
:10B9F000184300E02840072900D24000491CC9B282
:10BA00000729F0D9C005000E70BD70B505460024A9
:10BA10002B4E04E0FFF7E0FF3055641CE4B2AC426B
:10BA2000F8D370BD30B5254C00210546E1600320F8
:10BA3000FFF701FE2846FFF7E8FF0120E06030BD78
:10BA400070B5214C002525A0E56403F0BDFC1C4821
:10BA50000D21323801700A2141700146022221482D
:10BA6000FEF724FEE062FF20F530FFF7FBFBE06C01
:10BA70000A281BD9164AE5630F32E06B115C0D29C9
:10BA800003D0401CE0630A28F7D3C01C104B256488
:10BA9000E063E16B206C555C1D54491C401CE16364
:10BAA00020640F28F5D3C820FFF7DCFB70BDF0B58C
:10BAB000054C00268BB02034F4E000000048004024
:10BAC000FD060020B80B00001000002000407E00A2
:10BAD000B0000020490300204049004041542B475A
:10BAE000534E000000000740287F0090801E030096
:10BAF00003F091FC22121C425C5E8386A8D2FBEF0D
:10BB0000EEEDECEBEAE9E8E7E6E5E4E3E2E1E0DFCD
:10BB1000DEDDDCDBDAD9DAD8FD48EE6403F054FC74
:10BB2000FC490D2008700A2048701AE0FAA0EE6463
:10BB300003F04AFCF74F0D2038700A20787002227B
:10BB40003946F848FEF7B2FDE8627D20C000FFF7F5
:10BB500089FBF5A0EE6403F037FC0D2038700A2055
:10BB600078700222EB49EF48FEF7A0FDE8627D20E5
:10BB7000C000FFF777FB99E3EE49EE63E86B0A5CE0
:10BB80004F2A06D0401CE8632828F7D3085C4F28CA
:10BB900008D1EA6B2846891849784B29F8D1017FEA
:10BBA000491C2977E6E0401E286385E7062025E04A
:10BBB000E0492022EE63E86B0A54401CE8636428E5
:10BBC000F9D3DDA0EE6403F0FFFBD2480D21017034
:10BBD0000A21417001460222D248FEF767FD7D2707
:10BBE000FF00E8623846FFF73DFB4B200001286369
:10BBF000287F401C28773846CCE30820287773E755
:10BC00000A20CC49E8630A5C4F2A06D0401CE8634E
:10BC10003C28F8D3085C4F280CD1E86B2A4608185A
:10BC200040784B2806D1107F401C28777D20C0002B
:10BC3000FFF718FB286B00287ED1287F401C28774F
:10BC40001420A7E3BFA0EE6403F0BEFBB14F222097
:10BC50003870492078705020B8702220F8702C205D
:10BC600038712220787106223946AE48FEF71EFD53
:10BC7000E8623846D73003F097FB222038700D2059
:10BC800078700A20B87003223946A648FEF70EFDE8
:10BC9000E8627D2000018FE0286B00281BD0401E49
:10BCA00028631AE09CE0EEE3EEE3EEE3EEE3EEE37E
:10BCB000EEE3D8E3C4E3C0E303E3FBE2F8E2ABE284
:10BCC000A3E297E20AE105E1BFE0ADE078E075E0CC
:10BCD00055E03FE009E00B2028779648C1784F29CE
:10BCE0007ED100794B28FBD1E0E27D20C000FFF738
:10BCF000B9FA98A0EE6403F067FB864F22203870F3
:10BD0000492078705020B8702220F8702C203871AB
:10BD100022207871012239468248FEF7C7FCE8628A
:10BD20003846D73003F040FB222038700D20787061
:10BD30000A20B870022200E06BE039467948FEF72D
:10BD4000B5FCE8627D2000012863287F401C28772D
:10BD50008448E2E37748C1784F290BD100794B281A
:10BD600008D10D20804F28773846FFF77BFA3846F8
:10BD7000FFF778FA286B002800D014E796E26D49A7
:10BD80002022EE63E86B0A54401CE8632828F9D3AC
:10BD900076A0EE6403F018FB5E490D2008700A20BF
:10BDA000487002225F48FEF781FCE8627D20C000F7
:10BDB000FFF758FAFF209130286377E20F201DE744
:10BDC0005C4FEE63E86B395C4F2903D13918497831
:10BDD0004B2909D0401CE8632828F3D3EE6300E028
:10BDE00065E23046E96C0FE0287F401C28775E480A
:10BDF000FFF738FAF2E73A5C452A03D13A1852784D
:10BE0000522A03D0401CE8638842F4D3286B0028F0
:10BE100002D0401E286313E7287F401C28777D202E
:10BE2000C000FFF71FFA0BE753A003F0CDFA394922
:10BE30000D2008700A20487002223A48FEF736FCAE
:10BE4000E8625048EE64286391E602203949E863CD
:10BE50000A5C0D2A30D0401CE8631428F8D34878D7
:10BE600045282DD000208A78522A2BD0002210405D
:10BE7000CA78522A28D0002210400A794F2A25D0A9
:10BE8000002249791040522922D00021084209D0CD
:10BE900022202877344FA6703846FFF7E3F938465A
:10BEA000FFF7E0F9286B002800D07CE6287F401CD3
:10BEB00028777D20000130E3287F401C2877CEE7DB
:10BEC0000120D0E70122D2E70122D5E70122D8E7FD
:10BED0000121DBE714202877EE6405E67D20C00011
:10BEE000FFF7C0F9286B002802D0401E286309D153
:10BEF000287F401C28771C48FFF7B4F9E120800018
:10BF0000FFF7B0F9EE63E86C0A4B844631463FE038
:10BF1000BCB60000CB06002041542B4346554E3D95
:10BF2000310000000000074041542B434752454771
:10BF30003D310000BF00002041542B434741545481
:10BF40003D31000041542B434744434F4E543D3153
:10BF50002C00000041542B5149435347503D312C94
:10BF6000312C0000881300002823000041542B517D
:10BF7000494143543D31000041542B514941435400
:10BF80003F000000DC05000049287DD0491CE96322
:10BF9000585C6145F8D3492876D00022FE48401805
:10BFA00043780793502B70D000231A408378069370
:10BFB000202B6BD000231A40C3780593532B66D0F7
:10BFC00000231A4003790493542B7DD000231A4098
:10BFD00043790393412B78D000231A40837902934D
:10BFE000542B73D000231A40C3790193552B6ED084
:10BFF00000231A40037A0093532B69D000231A427E
:10C0000002D02A7F521C2A77E34A515C09914329C6
:10C0100076D0002307994F2973D000210B40069951
:10C020004E296FD000210B4005994E296BD000217D
:10C030000B400499452967D000210B4003994329FF
:10C040006FD000210B40029954296BD000210B4086
:10C05000019920297ED000210B4000992F464F29BD
:10C060007AD000210B40417A08914B2976D00020EC
:10C07000034201D01B20387709992846542971D0F2
:10C0800000230799432903E03FE040E041E042E01C
:10C090006AD000210B400699502967D000210B403F
:10C0A0000599202964D000210B400499432961D0CF
:10C0B00000210B4003994C295ED000210B400299CE
:10C0C0004F295BD0002104E027E028E02CE02DE0A0
:10C0D0002EE00B400199532952D000210B400099CA
:10C0E00045294FD000210B40089944294CD000210C
:10C0F0000B4202D0017F491C01773146C6634AE0FA
:10C1000018E019E01AE01BE01EE0012246E70123D7
:10C110004BE701234FE7012353E7012357E70123AF
:10C120005BE713E014E015E001235CE7012360E71F
:10C13000012364E701236DE701216FE7012172E725
:10C14000012175E708E009E0012176E7012179E79F
:10C1500001217CE701217FE7012183E7012087E7B7
:10C1600000E001E001238CE7012193E7012196E73C
:10C17000012199E701219CE701219FE70121A2E725
:10C180000121ABE70121AEE70121B1E7535C452B6B
:10C1900026D0491CC1636145F8D3515C45291FD0A5
:10C1A0000023C16B51184A78522A1BD00022134039
:10C1B0008A78522A18D000221340CA784F2A15D004
:10C1C000002209791340522912D000210B426ED06F
:10C1D000222101772178002900D085E4C6671CE17F
:10C1E0000123DEE70122E2E70122E5E70122E8E799
:10C1F0000121EBE769A003F0E7F8C820FFF732F868
:10C2000076490D2008607648B3E47D20C000FFF732
:10C2100029F8287F401C2877EE645F4A2021EE63CE
:10C22000E86B1154401CE8636428F9D36DA003F057
:10C23000CBF8704F22203870542078704320B870AB
:10C240005020F870222038712C2078712220B8718B
:10C25000072239466148FEF729FAE8623846C830B5
:10C2600003F0A2F8222038702C2078704320B87098
:10C270005020F870222038712C2078712220B8715B
:10C28000022239465548FEF711FAE8625A4803F08F
:10C290008BF85AA003F098F80D2038700A207870B7
:10C2A000022239464D48FEF701FAE862BDE11DE180
:10C2B0001820A3E47D200001FEF7D4FF4B200001ED
:10C2C0007AE51E20344FE863395C4F2903D13918D1
:10C2D000497850292BD0401CE8634628F4D3385CB9
:10C2E0004F2824D00021E86B38184278502A20D0FB
:10C2F000002211408278452A1DD000221140C278C8
:10C300004E2A1AD00022007911403A2817D0002076
:10C31000014202D00098401C28776420FEF7A2FF5B
:10C32000286B294600280CD0401E08630CE0012130
:10C33000D9E70122DDE70122E0E70122E3E701205E
:10C34000E6E7087F401C08772820C863E96CE86BA3
:10C3500004E03A5C522A03D0401CE8638842F8D3D8
:10C36000401EE8633A5C2946452A5CD00022381812
:10C370004378522B59D000231A408378522B56D041
:10C3800000231A40C3784F2B53D0002300791A4062
:10C39000522837E0C1E00000BF000020474554208C
:10C3A00068747470733A2F2F747261636B6D656774
:10C3B00070732E626C6F622E636F72652E77696E7A
:10C3C000646F77732E6E65742F62696E2D66696C6B
:10C3D000652F546573742E74787400000000074054
:10C3E000409C000041542B51494F50454E3D312C4B
:10C3F000312C0000CB060020AA0000202C302C316C
:10C400000000000017D0002002426FD022200877E1
:10C410002078002800D060E5CE67AE67E671012085
:10C420002070A67059E50122A1E70123A4E70123AA
:10C43000A7E70123AAE70120E6E7FFF701FBF4E005
:10C44000F8A0EE6402F0C0FFF9480D2101700A2146
:10C45000417001460122F748EE64FEF727F9E862D1
:10C460007D20C000A8E4F449EE63E86B0A5C3E2A34
:10C470000FD0401CE8633C28F7D3286B00280CD071
:10C48000401E28630BE032E1ADE123E1D1E0C9E0D9
:10C4900046E0287F401C2877EFE722202877EE63CC
:10C4A0003046EA6C04E00B5C522B20D0401CE86361
:10C4B0009042F8D3085C522819D00022E86B081883
:10C4C0004178522915D000210A4081784F2912D095
:10C4D0000021C0780A4052280FD0002002421BD011
:10C4E000222028772078002809D015E0D5E0012205
:10C4F000E4E70121E8E70121EBE70120EEE7EE6741
:10C50000AE67E67101202070A6706E67FFF710F924
:10C51000FF20F530FEF7A6FE0A20FEF7A3FEBCE0E2
:10C52000FF202D30FEF79EFE0120A070207800280D
:10C5300058D02E64C1480660E86F68672F467F2098
:10C54000FFF770FABA49FE63323105E0BC48835404
:10C55000521CFA637F2A03D8FA6B8B5C0A2BF5D145
:10C56000B748895C8154B249521C3231B148FA63F0
:10C57000FEF79CF8F862B14901200860F86F80303E
:10C58000F867396C491C3964B96F884210D30A20A6
:10C5900038642670FE67BE673F20E6714004FFF7EF
:10C5A000D3F8B86F7867FFF7C3F86420FEF75AFE38
:10C5B0006420FEF757FE386C0A28BBD32078C007EA
:10C5C000C00F0AD09B480D2101600A2101601A2189
:10C5D00001606420FEF746FEEE642078002801D05A
:10C5E000222066E6FFF7E8F8924F95493846EA6B55
:10C5F000FEF75CF8E8626420FEF734FE0D20386038
:10C600000A2038601A2038600A20FEF72BFE1A2014
:10C61000EE643860C820FEF725FEC8202863287F16
:10C62000801C04E0FF20F530EEE5287F401C2877D1
:10C6300033E08149EE63E86B0A5C532A34D0401C36
:10C64000E8630B28F7D3085C53282DD00022E86B51
:10C6500008184178452929D000210A4081784E29BF
:10C6600026D000210A40C178442923D000210A4065
:10C670000179202920D000210A4041794F291DD07D
:10C68000002180790A404B281AD00020024219D09C
:10C69000287F401C28770120E0706A4D287F2828D9
:10C6A00000D21AE40BB0F0BD0122D0E70121D4E79B
:10C6B0000121D7E70121DAE70121DDE70121E0E7E8
:10C6C0000120E3E7286B002801D0FFF76CFA012076
:10C6D000E070AAE7A078002802D05A490120C87764
:10C6E000584801214665016532210177DAE7514F4B
:10C6F0000D253D600A2139601A2139600A20FEF7B4
:10C70000B1FDA078002806D14F4802F05DFE3D60E3
:10C71000C820FEF7A7FD01202070FFF74DF8494D16
:10C72000474AE86B0D2111540A21401C1154801C0A
:10C730003F4B2E6432333146E86304E0404A525C9A
:10C740005A54491C29648142F8D33F22A96F9204AC
:10C7500091421AD2C0B26967FEF7C6FF6420FEF7A5
:10C7600081FDA86F8030A867E179491CCAB2E271E7
:10C770001F2A06D96867FEF7DBFF6420FEF772FD0B
:10C78000E6713F204004FEF7DFFF30A002F01CFE00
:10C790002B493846EA6BFDF789FFE8620D203860C7
:10C7A0000A20EE64FEF75EFD0127EF77A079401CBA
:10C7B000C0B2A071A17800290DD1092810D9FEF7C7
:10C7C000FAFEA671EE772F6528206E652877EE7148
:10C7D000A078002804D028202877E6702F656E65A1
:10C7E000322028775EE71749322008775AE770B57C
:10C7F000144C002516A0E56402F0E6FD0C480D215E
:10C8000001700A214170014602220A48FDF74EFFDD
:10C81000E0627D20C000FEF725FDE563064A28465C
:10C82000E16C1EE041542B514953454E443D3100CB
:10C83000CB06002000000740BF00002080480040D9
:10C840004903002010000020BCB6000041542B001A
:10C8500041542B4353510000135C2C2B03D0401C3C
:10C86000E0638842F8D3801EE063115C0A2330390C
:10C8700010185943407830394118F9482164417003
:10C88000F8A002F0A1FD70BDF8B5F54C0126203CE2
:10C89000207CF74F0025030002F0BDFD0705393E5F
:10C8A0003E40525B5100F3A002F08EFD6420FEF783
:10C8B000D9FC0D203860F2A002F086FD6420FEF75E
:10C8C000D1FC22203860E64AF048603250600346CE
:10C8D000EB3BE5635168E06B0D781D54491C401C2F
:10C8E0005160E0630D28F5D3E8490246EB393D4637
:10C8F0003846FDF7DBFEE062222028600D2028602C
:10C900006420FEF7AFFC2670667002201FE07D20D9
:10C91000C000FEF7A7FC18E06420FAE76420FEF7E9
:10C92000A1FC1A203860E5741E206074A674E564CA
:10C93000A572207C401C20746420FEF793FCF8BD97
:10C940006420FEF78FFCE564A572207C401C2074F7
:10C95000F8BDCF49E563E06B0A5C2B2A03D0401C8D
:10C96000E0631428F7D3401CE0630A5C432A13D029
:10C970000022081841784D2910D000210A40817802
:10C9800047290DD00021C0780A4053280AD0002042
:10C99000024209D0E6740AE00122EAE70121EDE74C
:10C9A0000121F0E70120F3E7E07C002801D02574A5
:10C9B000A5740A202074A574E574F8BDFEB5A84DD1
:10C9C000203D287C082875D20024B14FEC63E86B29
:10C9D00020213954401CE863AA28F8D3A5A0EC64B0
:10C9E00002F0F2FCC820FEF73DFCA1480D260660CF
:10C9F0006420FEF737FCA7A0EC6402F0E5FC9C483D
:10CA00000660FF202D30FEF72DFC0520E8639449D9
:10CA10002039C86B3A5C3A2A08D0401CC8635028B9
:10CA2000F5D30846C06B385C3A287DD18C4E203E49
:10CA3000F06B001FF063FF20F530FEF713FCF06B86
:10CA4000395C432937D00021381842784D2A34D038
:10CA5000002211408278472A31D00022C07811404C
:10CA600052282ED0002001425ED0F4630123347599
:10CA7000F37614207064395C2B2903D0401C706459
:10CA80005628F8D3054630640020804AF063316CA4
:10CA90007C5C1454491C401C3164F0630D28F6D3AF
:10CAA0000020F0637EA001787A5D384691420AD179
:10CAB000F3630BE072E10121C6E70122C9E701221D
:10CAC000CCE70120CFE7316C491C3164142171643B
:10CAD000425C0D2A03D0491C71645629F8D3891C85
:10CAE0000122716432753C22F263835C0D2B06D007
:10CAF000D21CF2635A2AF8D3825C4F2AB4D0F26B6C
:10CB0000821852784B2AAFD0F163445C37468C468A
:10CB1000552C7DD00023614645186A78502A78D07C
:10CB200000210B40A97800E034E1442972D00020B4
:10CB30001E460640E87854286DD000231E4201D0DE
:10CB40000123BB763B2C67D00023522A7ED00026DF
:10CB5000334053297BD000263340542878D0002618
:10CB60001F462B793740302B73D00026374203D035
:10CB70003B4F0126203F7E753B2C6BD00026532A6D
:10CB800069D000273E40452966D000273E40542802
:10CB900063D000273E40442B60D000273E406F7991
:10CBA0000197462F5BD000273E402D4FAD79203FA7
:10CBB0000095302D7CD000252E4201D00125BD7579
:10CBC0003B2C76D00026562A74D000252E404C29C6
:10CBD00071D000252E4053286ED000252E40452BC5
:10CBE0006BD000252E40019D542D67D000252E408E
:10CBF000009D302D7ED000252E4201D00125FD75EF
:10CC00003B2C78D00026532A76D000252E4004E015
:10CC1000C5E0C6E0C9E0CAE0CBE054296DD00025EC
:10CC20002E4041286AD000252E40302B67D00025A9
:10CC30002E4201D001253D763B2C7DD00026532A83
:10CC40007BD000252E40452978D038E0B3E0B7E00E
:10CC5000B8E0B9E0BAE0BBE0BDE0BEE0BFE0C0E0F4
:10CC6000300000204353513D253032640A0000005B
:10CC70000000074041542B434D47463D3100000022
:10CC800041542B434D47533D000000003404002025
:10CC9000BF00002041542B434D47523D300000005F
:10CCA0002B393139383232363031363237240000C0
:10CCB00099E09AE09EE09FE0A0E0A1E0A2E00025DC
:10CCC0002E4054286FD000252E40302B6CD00025EC
:10CCD0002E4201D001257D76552A6ED0002650299E
:10CCE0006CD000252E40442869D000252E40542BBE
:10CCF00070D005E08AE08BE08CE08DE08EE08FE084
:10CD000000252E4201D00125BD76F74D3B2C6ED07B
:10CD10000024462A6CD0002214404F2969D00021FB
:10CD20000C40542870D000200440412B6DD00020CE
:10CD3000044221D0604602E074E075E076E0002411
:10CD4000801DEA4A3C642021F863386C1154401C71
:10CD500038646428F9D33C64F96B386C6B5C135409
:10CD6000491CF963695C3B2979D0401C386464280C
:10CD7000F2D3DF4801210172F86B78640020DD4AAC
:10CD80003864796C6B5C1354491C401C79643864BA
:10CD90006428F6D3D6480A2120380174FEBD012349
:10CDA000B9E60121BDE643E044E00120C0E60123ED
:10CDB000C4E60123C9E60126CAE63DE03EE03FE0C5
:10CDC0000126C9E60126CBE60126CFE60126D6E6F6
:10CDD0000127D7E636E00127D8E60127DAE6012762
:10CDE000DCE60127E0E60125E6E60126EBE62BE09E
:10CDF0002DE02EE00125E9E60125EBE60125EDE633
:10CE00000125EFE60125F2E625E026E00125F3E61F
:10CE10000126F8E60125F9E6012501E7012503E7EA
:10CE2000012505E701260AE701250BE7012547E76C
:10CE3000012549E701254BE7012650E7012551E788
:10CE4000012553E701255CE7012462E707E00122A1
:10CE500062E7012164E7012066E7012068E7386C9A
:10CE6000401C3864145484E770B5A34802F0ACFA4F
:10CE70006420FEF7F7F9A14C0D2525607D26F6000C
:10CE80003046FEF7EFF99EA002F09EFA256030468C
:10CE9000FEF7E8F970BD704770B50546944E954CA5
:10CEA0003F204004203EC834854218D170670A20D4
:10CEB000FEF7B8FD2078010260780843A1780002EF
:10CEC0000143B167E07801022079084361790002EB
:10CED0000143F1678649A0790870E079C8718B48F1
:10CEE000854207D170670A20FEF79CFD2078F06527
:10CEF0006078306670BD86A002F066FA0A20FEF700
:10CF0000B1F98C48012444600025056001F06BFFF5
:10CF1000FEF7DBF8884801682143016001680822B8
:10CF200011430160100301F06AFF714805727D2012
:10CF3000C000FEF797F9FEF72AF8FEE7F8B501F012
:10CF400052FFFEF7C2F80125694EED0360367A48BC
:10CF5000B56001682C460822114301605703204642
:10CF6000FEF762F80620FEF77DF9FF34FF34023445
:10CF7000BC42F4D35E494B20203908635C4801224F
:10CF8000009002726030C5600068400A801C8864AE
:10CF9000002048647EE00027664CF764276067A0A5
:10CFA00002F012FA0A20FEF75DF954490D200860DC
:10CFB0007D20C000FEF756F901202060F7634A4B40
:10CFC0003846F16C04E01A5C432A75D0401CF063CB
:10CFD0008842F8D3195C43296ED0002419184A7886
:10CFE0004F2A6BD0002214408A784E2A68D0002243
:10CFF000C97814404E2965D000210C4240D00D3034
:10D000003A4C0125643437646D02F063F16B306C87
:10D010005A5C2254491C401CF1633064A842F5D389
:10D020000620FEF71FF93846424F7860B063706300
:10D03000F063054630642D4C02466434A018C17874
:10D04000837809020B43407819020843A15C00026F
:10D05000274C014360347163E068FEF754F8E068E0
:10D060000121001DE060306C4902001D75633064D1
:10D070008842E0D37D20C000FEF7F4F801207860FC
:10D080006420FEF7EFF8306B401E30631CD0706CEC
:10D09000401C7064164E203EB16C706C884200D209
:10D0A00079E7254A0023106808218843106000981A
:10D0B0000372F8BD00E001E001248FE7012292E74E
:10D0C000012295E7012198E7009900200872E8E71E
:10D0D000F0B5002589B00D26054F66E1207A801F46
:10D0E0002A28FAD234E00000BF000020D90700202F
:10D0F000300000203506002074CC000000000740FE
:10D1000041542B434D47443D312C340000407E00B8
:10D1100041542B52657374617274696E672077692C
:10D120007468206E6577206669726D776172652E0E
:10D130002E2E0A008048004000C0004041542B5170
:10D1400046524541443D313032372C3531320000B2
:10D1500043007B449B885B009F4429004D004F00A7
:10D160007300A200B20028013C015C015F0196013E
:10D17000A501E901ED016C036E038D039803AE0375
:10D18000CC03D703E803FC030D04C9030F043304E5
:10D1900041040C055C057B05870589059705990504
:10D1A0009B05270127012701270127019D05FF492D
:10D1B0002022E563E06B0A54401CE0636428F9D345
:10D1C000FB48E56402F000F9FA480A210670417054
:10D1D00001460222F848FDF769FAE0627D20C000AE
:10D1E000FEF740F84B2000012063207A401C20729B
:10D1F0007D20C00045E108200DE10A20EB49E063F5
:10D200000B5C4F2B07D0401CE0633C28F8D3E06B4D
:10D21000085C4F280CD1E26B2046891849784B29CD
:10D2200006D1017A7D20491C2172C000FEF71AF850
:10D23000206B214600287DD1087A401C20721420E2
:10D240001FE1DB48E5640C3002F0BEF8D94922202A
:10D250000870D8484921417050218170D549222059
:10D26000C870D4482C210171D2492220487106226D
:10D27000D148FDF71BFAE062CE48D73002F094F8AF
:10D28000CC4922200870084646700A218170014668
:10D290000322C948FDF70AFAE0627D200001B7E0E9
:10D2A000206B002802D0401E206301E00B2020727A
:10D2B000BE48C1784F2978D100794B28FBD1A8E02E
:10D2C0007D20C000FDF7CEFFB948E5641C3002F0B8
:10D2D0007BF8B84922200870B64849214170502196
:10D2E0008170B4492220C870B2482C210171B14923
:10D2F000222048710122B048FDF7D8F9E062AD481C
:10D30000D73002F051F8AB482221017046700A2153
:10D31000817001460222A848FDF7C8F9E062A7A083
:10D3200002F052F86420FDF79DFFA3492220086017
:10D33000A6A000E09AE002F047F86420FDF792FF13
:10D340009D4922200860A4A002F03EF86420FDF769
:10D3500089FF99480660A148E56420637D20C000EC
:10D36000FDF780FF95A002F02FF86420FDF77AFF0B
:10D370009149222008609AA002F026F86420FDF767
:10D3800071FF8D492220086099A002F01DF86420E9
:10D39000FDF768FF884806607D200001E564206392
:10D3A000207A401C207293486BE0A2E27F48C1784B
:10D3B0004F2909D100794B2806D126728E48FDF7F6
:10D3C00051FF8D48FDF74EFF206B002821D0401EF5
:10D3D00020638EE275492022E563E06B0A54401C0D
:10D3E000E0632828F9D37248E564343001F0ECFF9B
:10D3F00070480A2106704170014602226E48FDF70E
:10D4000055F9E0627D20C000FDF72CFFFF20913030
:10D410002063E8E30F20207260E6E5636349E06B78
:10D42000095C4F2904D16149091849784B2908D072
:10D43000401CE0632828F1D3E5635C492846E26C90
:10D440000FE0207A401C20726B48FDF70BFFF3E7DA
:10D450000B5C452B03D10B185B78522B03D0401C7F
:10D46000E0639042F4D3206B002802D0401E20637A
:10D47000E5E6207A401C20727D20C000FDF7F2FE18
:10D48000DDE6FDF7EFFEB1E34948403001F09CFFD7
:10D4900048480A2106704170014602224648FDF7BD
:10D4A00005F9E062EBE302204049E0630A5C0D2AE3
:10D4B0002FD0401CE0631428F8D3487845282CD09E
:10D4C00000208A78522A2AD000221040CA78522A94
:10D4D00027D0002210400A794F2A24D0002249790F
:10D4E0001040522921D00021084208D02220207269
:10D4F000BD704148FDF7B6FE3F48FDF7B3FE206B17
:10D50000002800D063E7207A401C20727D200001B3
:10D51000B7E7207A401C2072CFE70120D1E7012233
:10D52000D3E70122D6E70122D9E70121DCE7142065
:10D530002072E564D2E57D20C000FDF793FE206BEC
:10D54000002802D0401E206309D1207A401C20729E
:10D550002948FDF787FEE1208000FDF783FEE563A3
:10D56000E06C124B2946079003E049287ED0491C05
:10D57000E16307988142585CF7D3492876D00022AE
:10D580000A48401843780693502B70D000231A4065
:10D5900083789C46202B6BD000231A40C3780593D8
:10D5A000532B66D000231A40037927E0BF000020E8
:10D5B00038BF0000CB0600200000074041542B512B
:10D5C000485454504346473D00000000636F6E745A
:10D5D00065787469640000002C310000DC050000EF
:10D5E000726573706F6E7365686561646572000063
:10D5F0002C30000088130000282300000493542BD3
:10D600007ED000231A4043790393412B79D0002325
:10D610001A4083790293542B74D000231A40C379A3
:10D620000193552B6FD000231A40037A0093532B9C
:10D630006AD000231A4202D0227A521C2272FD4A7A
:10D64000515C0891432975D000211346069A4F2A50
:10D6500071D00022114062464E2A6DD00022114046
:10D66000059A4E2A69D00022114003E066E067E087
:10D6700068E069E0049A452A7FD000221140039AAD
:10D68000432A7CD000221140029A542A79D00022E9
:10D690001140019A202A76D000221140009A4F2A88
:10D6A00073D0002211401A46437A4B2B71D00020D0
:10D6B000014201D01B202072089854286BD0002012
:10D6C0000699432969D0002108406146502966D057
:10D6D000002108400599202963D0002108400499C1
:10D6E000432960D00021084003994C295DD00021D6
:10D6F000084002994F295AD000210840019904E0BE
:10D7000024E025E026E027E02BE0532951D000213A
:10D710000840009945294ED0002108402146442B5D
:10D720004BD00023184202D0087A401C08722846C9
:10D73000CD6349E017E018E019E01AE001221FE785
:10D74000012324E7012328E701232CE7012359E7DC
:10D7500001235DE7012361E7012365E70DE00EE0AA
:10D760000FE0012366E701216FE7012272E7012242
:10D7700075E7012278E706E007E001227EE7012253
:10D7800081E7012284E7012287E701228AE700E09E
:10D7900001E001208CE7012092E7012194E70121BB
:10D7A00097E701219AE701219DE70121A0E70121E7
:10D7B000A3E70121ACE70121AFE70123B2E7115C48
:10D7C00045292DD0401CE06307998842F7D3105CAF
:10D7D000452825D00020E16B234651184A78522A6B
:10D7E00020D0002210408A78522A1DD000221040FA
:10D7F000CA784F2A1AD0002209791040522917D02E
:10D800000021084275D0222018723878002800D0F4
:10D8100064E4DD67A567FD7101203870BD705DE4CB
:10D820000120D8E70122DDE70122E0E70122E3E75A
:10D830000121E6E71920EEE57F4801F0C5FD6420EF
:10D84000FDF710FD7D49222008607B48243001F05F
:10D85000BBFD7A492220086079A001F0B5FD774828
:10D8600006607848E56420637D20C000FDF7FAFC7F
:10D87000207A801CB9E174A001F0A6FD6420FDF7B8
:10D88000F1FC6E492220086072A009E06EA001F050
:10D890009BFD6420FDF7E6FC68482221016070A032
:10D8A00001F092FD65482221016065A001F08CFD28
:10D8B000E3E1FDF7D7FC96E163A001F085FD64206C
:10D8C000FDF7D0FC5D492220086068A001F07CFDD6
:10D8D0005A492220086068A001F076FD574806608A
:10D8E0005848E56420637D20C000FDF7BBFC1F2085
:10D8F00091E57BE1504801F067FD6420FDF7B2FC43
:10D900004E49222008605DA0CAE75FA001F05CFDDF
:10D910006420FDF7A7FC4948222101605DA001F0C9
:10D9200053FD4648222101605DA0BFE756A001F0EB
:10D930004BFD6420FDF796FC4048222101605AA06F
:10D9400001F042FD6420FDF78DFC3C48222101607E
:10D9500058A08DE14CA001F037FD6420FDF782FC5A
:10D9600036492220086056A001F02EFD33492220BE
:10D97000086056A09AE71E204DE52F4801F024FDCF
:10D980006420FDF76FFC2D492220086051A001F0B2
:10D990001BFD6420FDF766FC2848222101604EA093
:10D9A00001F012FD2549222008604C4801F0FCFCE2
:10D9B000FF20F530FDF756FC2049222008600E605C
:10D9C00045E147A0E56401F0FFFC6420FDF74AFC57
:10D9D0001A4806601B48E5642063454869E714203F
:10D9E0001449E0630A5C3A2A03D0401CE0633C28F7
:10D9F000F8D3821CE263885C30287DD0002388182D
:10DA000044782C2C79D0002423408478322C75D093
:10DA100000242340C478302C71D0002423400079A6
:10DA2000344C30286CD0002003426AD0921D012073
:10DA3000844667E0BF000020BCD50000000007401E
:10DA40002C310000DC05000041542B51465450435A
:10DA500046473D0066696C6574797065000000009A
:10DA60007472616E736D6F64650000007273707420
:10DA7000696D656F757400002C39300073736C63C9
:10DA8000747869640000000041542B5153534C4397
:10DA900046473D0073736C76657273696F6E000064
:10DAA0002C312C3400000000636970686572737556
:10DAB000697465002C312C3078666666660000005B
:10DAC0007365636C6576656C000000002C312C304A
:10DAD0000000000055524C002C000000D907002027
:10DAE00041542B51485454504745543D3830000060
:10DAF000204E0000100000201CE01DE01EE01FE092
:10DB000020E07BE0FD4BE26320641D60FB48FC4CA1
:10DB10008038C06B1968225C30395118F74A401CB4
:10DB2000803A1960D063225C0D2A0DD000200A2AA9
:10DB300012D00AE0012362E7012465E7012468E7C7
:10DB400001246BE701206FE701200022104305D07C
:10DB5000EA488038056407E00122F7E70A204143DC
:10DB6000604619600028D1D1E4488038017A491C08
:10DB700001723BE0E3A0E56401F026FC6420FDF7C0
:10DB800071FBE8A001F020FC6420FDF76BFBEA4884
:10DB900022210160E9A001F017FC6420FDF762FB7F
:10DBA000E54822210160E9A001F00EFC6420FDF7A8
:10DBB00059FBE1480660E6482063E648FDF752FB62
:10DBC0001420CF49E0630A5C4F2A03D0401CE06375
:10DBD0003C28F8D3801CE0630A5C4F2A03D1081864
:10DBE000407852280AD0207A401C2072C34C803CD6
:10DBF000207A322800D20FE409B0F0BDD6A001F09F
:10DC0000E3FB6420FDF72EFBBC493220803908720B
:10DC10003D72F1E7D9A0E56401F0D6FB6420FDF781
:10DC200021FBC54922200860C4A001F0CDFB64207F
:10DC3000FDF718FBC04922200860D3A001F0C4FB07
:10DC40006420FDF70FFBBC480660C1482063CF4845
:10DC50002FE6FFF773F9CE49012048607D20C00010
:10DC6000FDF700FBBA48FFF7D3FB2620E3E5C9A088
:10DC700001F0AAFB6420FDF7F5FAAF480660B4484E
:10DC8000E56420637D20C00013E62820D3E5C5A00D
:10DC90000CE6FFF730F99949322080390872ABE77A
:10DCA00010B5C4A001F090FBC9A001F08DFBCB48DA
:10DCB000FDF7D8FAFFF742F910BDC9A001F084FBC7
:10DCC000FFF719F9F0B5B248002747608B4C3D4685
:10DCD000803C0EE0A07A03280ED86D1C0A2D03D9D3
:10DCE000A7726772A76427710A20FDF7BBFA142D8B
:10DCF00002D820790028EDD02764C14EE763E06B9D
:10DD0000315C522920D0002231184B784D2B1DD088
:10DD100000231A408B78432B1AD00023C9781A406D
:10DD20002C2917D000210A4225D0001DE063E7729C
:10DD30004230B34B2764623B6064E26B216CB05CA1
:10DD400058542C2808D010E00122DDE70123E0E739
:10DD50000123E3E70121E6E7E07A401CC0B2E0726C
:10DD6000082802D9206CE07205E0521C491CE263CD
:10DD700021645F29E1D3E06B401CE063C828BED377
:10DD80005E4BE763573BE06B315C472919D00022BB
:10DD900031184D78472D16D000252A408D78412D19
:10DDA00013D00025C9782A402C2910D000210A421E
:10DDB00031D0001D2764E063E06B315C2C2908D072
:10DDC0000AE00122E4E70125E7E70125EAE701216E
:10DDD000EDE7216C491C2164401CE063206C06289F
:10DDE000EAD3E56BAD1C012025646064E06B08E0BC
:10DDF000616C325C5A54491C61642C2A03D0401C6B
:10DE0000E063A842F4D398782C2803D1587898700E
:10DE1000302058702764E06B401CE063C828B2D300
:10DE200077486238C07A562812D1594C67604B2621
:10DE3000F6003046FDF716FA01256560676030464A
:10DE4000FDF710FA656067603046FDF70BFA656014
:10DE5000FF209130FDF706FA4D4901204860F0BDE2
:10DE600008B5FDF71CFA6748FDF7FCF9484800249F
:10DE7000446065A001F0A8FA4448FDF7F3F900F00A
:10DE8000B2FFFDF722F90127FF033846FDF723F91A
:10DE90001A4D0146803D6863A86360A001F094FAC2
:10DEA0000A20FDF7DFF9686B401C0BD0384600F004
:10DEB000A6FF5DA001F088FA0A20FDF7D3F9FDF76F
:10DEC00066F8FEE73148FDF7CDF93048FDF7CAF9AD
:10DED0000020E8645C4801F077FA5C4C0D2626705F
:10DEE0000A276770022221461348FCF7DFFBE8622D
:10DEF0004448FDF7B7F90020E864A9E0900000204D
:10DF0000BF00002041542B4669726D776172652015
:10DF1000646F776E6C6F6164696E672E2E2E2E2192
:10DF20000A00000041542B5148545450524541447A
:10DF300046494C453D0000000000074066696C659D
:10DF40005F6E616D652E62696E0000002C383000D6
:10DF5000DC050000204E000041542B4669726D77AD
:10DF600061726520646F776E6C6F6164696E6720A3
:10DF70002121204641494C2021210A0041542B51A6
:10DF8000464F50454E3D00002C3000001027000049
:10DF90008048004041542B5146434C4F53453D313E
:10DFA0003032370041542B514944454143543D31AF
:10DFB00000000000446F776E6C6F6164696E6720CB
:10DFC0006669726D776172652E2E2E0A0000000060
:10DFD00041542B514654504745540A00409C000080
:10DFE00041542B4669726D7761726520757064616A
:10DFF000746520636F6D706C6574652E0A00000097
:10E00000410400208813000041542B426F6F74209C
:10E010004C6F616465722E2E2E0A000041542B2035
:10E02000253038580A00000041542B207374617267
:10E0300074696E672077697468206669726D7761AC
:10E0400072652E2E2E0A000018BF0000CB0600209D
:10E05000FEA001F0B9F92670677002222146FE4841
:10E06000FCF724FBE8627D20C000FDF7FBF80020F0
:10E07000E864FAA001F0A8F9267067700222214630
:10E08000F548FCF713FBE8627D20C000FDF7EAF8D5
:10E090000020E864F3A001F097F92670677002226F
:10E0A0002146ED48FCF702FBE862F148FDF7DAF89B
:10E0B0000020E864EFA001F087F91420FDF7D2F802
:10E0C000E54922200860EEA001F07EF9E249222015
:10E0D00008602C20086022200860EBA001F074F991
:10E0E000DD49222008602670677002222146DA4846
:10E0F000FCF7DCFAE862DE48FDF7B4F80020E449FA
:10E100002023E8630B54401CE8635028FAD3002610
:10E11000E04A3021EE63E86B1154401CE8630428A8
:10E12000F9D3DC4AEE63521DE86B1154401CE863DE
:10E130000628F9D3D74AEE63673AE86B1154401CBE
:10E14000E8630428F9D3D44AEE63E86B1354401C07
:10E15000E8631428F9D3D049EE631931E86B202322
:10E160000B54401CE8631428F8D3CB4A0D20114609
:10E170001070193108707F2000046867FDF7D8FA25
:10E18000BB48FDF76FF8C34CC4A0103CC24F6060A1
:10E19000B43FEE63BF4810384268E86B11783954D9
:10E1A0003B2907D0BB49521C1039401C4A60E86328
:10E1B0009628EFD3E86B7F210904401C6967E86368
:10E1C000401CC0B2FDF790FAA948FDF74BF8B14CDE
:10E1D000EE67703CAE67E6713F2040046E67FDF766
:10E1E000B3FA0F20E8655A202866B348FDF7ACFA69
:10E1F000FF20F530FDF736F8EE63E86B395C3B291C
:10E2000003D0401CE8637F28F7D3AC4801F0DCF86A
:10E21000A1499148B439EA6BFCF748FAE8629E4894
:10E220000D21E63801700A214170014602228A4818
:10E23000FCF73CFAE8620020E86328640520686483
:10E24000E96B7A5C2C2A0BD0924B286C0A331A5457
:10E25000491C401CE9632864686C401E6864EFD167
:10E260000020286419206864481CE863E96B7A5C24
:10E270002C2A0BD0884B286C0F3B1A54491C401C8D
:10E28000E9632864686C401E6864EFD1002028644C
:10E290003C206864481CE8637F48E96BB438425C02
:10E2A0003B2A0BD00646286C96363254491C401C3B
:10E2B000E9632864686C401E6864EDD17E48FEF70F
:10E2C000EBFD3F204004FEF7E7FD2078002802D157
:10E2D000E867A867E071A86FC3096B6378A02A6E2E
:10E2E000E96D01F071F800268449EE710120486063
:10E2F00008600821A9656E77AE776E652865AE72F5
:10E300006E72AE642E71AE7160717D48F5E37DA0D2
:10E31000EE6401F059F860480D27E6385E49077051
:10E320000A20E639487002224B48FCF7BFF9E86240
:10E330007D20C000FCF796FF75A0EE6401F044F864
:10E3400055485549E63807700A20E63948700122D9
:10E350004148FCF7ABF9E8627D20C000FCF782FF82
:10E36000E86C0C281BD96D49EE63E86B0A5C3A2A0D
:10E3700003D0401CE8630A28F7D30930464B2E64CB
:10E38000E8636648EA6B815C286C0D29195409D052
:10E39000521C401CEA6328641928F2D302E03E496B
:10E3A0000D2008705D4F2021EE63E86B3954401C4E
:10E3B000E8631428F9D35AA0EE6401F005F8364852
:10E3C0000D21E63801700A214170014601222248E0
:10E3D000FCF76CF9E8627D20C000FCF743FFE86CB5
:10E3E0000F281FD9EE63E86B395C3A2903D0401C33
:10E3F000E8630A28F7D30930274A2E641932E86304
:10E40000E86B46490746095C286C0D29115405D074
:10E41000791C401CE96328640F28F1D3C820FCF75D
:10E4200021FF03E01C490D20193108703EA0EE6465
:10E4300000F0CAFF18480D21E63801700A2141702A
:10E44000014602220448FCF731F973E041542B20C5
:10E4500056657220312E33000000074041542B4393
:10E46000474D520041542B43475245473D3200002F
:10E470008813000041542B515552434346473D00F9
:10E48000757263706F72740075617274320000008F
:10E49000DF030020A0000020B10700203130313020
:10E4A000302C4A494F4E45542C31332E37362E33BB
:10E4B0002E34323B0000000000407E004CC80000BB
:10E4C00041542B20677072735F6F6E5F636E7420B0
:10E4D0003D20253033642C677072735F6F66665F12
:10E4E000636E74203D20253033642C4D454D5F52C2
:10E4F0004543203D20253036640A00008048004016
:10E500001027000041542B4350494E3F00000000AB
:10E5100041542B514343494400000000BF000020F8
:10E5200041542B434E554D0041542B435245473FD8
:10E5300000000000E8627D20C000FCF793FEFDF7BC
:10E540007FFA0120A877687729E0FE48EE6400F0A2
:10E550003BFFFD480D2101700A2141700146022256
:10E56000FA48FCF7A3F8E8621420FCF77BFEEE63A0
:10E57000F7493046EA6C04E00B5C2C2B03D0401CBE
:10E58000E8639042F8D3801EE8630A5C0A23303ABD
:10E5900008185A434078303A801828646070E87947
:10E5A000401CE871C6E2EBA0EE6400F00DFFE64807
:10E5B0000D2101700A21417001460222E348FCF757
:10E5C00075F8E862EBE72E74FEF7F8F9E86C0A28B4
:10E5D000E5D9A87D002879D07F2000046867FDF781
:10E5E000A7F8DF48FCF73EFEDF48DE49D64F416022
:10E5F0003237EE63DC484368E86B197839543B29BD
:10E6000006D0D9495B1C401C4B60E8639628F1D3C7
:10E61000E86B7F210904401C6967E863401CC0B2B5
:10E62000FDF762F8CE48FCF71DFEEE630520CE49EB
:10E630002E641A316864E86B84463A5C286C2C2A94
:10E640007DD00A546246521C401CEA632864686C00
:10E65000401E6864EFD10F202E646864E86BBA49ED
:10E66000401CD731E863E86B84463A5C286C2C2A5E
:10E6700067D00A546246521C401CEA632864686CE6
:10E68000401E6864EFD13C202E646864E86BAE499C
:10E69000401CC831E863E86B84463A5C286C3B2A2E
:10E6A00051D00A546246521C401CEA632864686CCC
:10E6B000401E6864EFD1AD4800F086FEA3480D27E8
:10E6C0000760FF20F530FCF7CDFD00E012E0A8A0C8
:10E6D00000F07AFE9D480760FF20F530FCF7C2FD90
:10E6E000EE67AE67E6713F2040046E67FDF72CF8D9
:10E6F000AE75EE77E87D00287ED02E740120FEF7FF
:10E70000C3F8287C0428F9D32E649C49EE6396480C
:10E710002F6C1A30C25D2C2A07D0E86B7F1C0A547C
:10E72000401C2F64E8630528F1D3E86B2C220A54BF
:10E73000401C854B2E64D733E86311E0FFE70E548D
:10E7400089E70E549FE70E54B5E72A6C94469A5C0D
:10E75000002A07D00A546246521C401C2A64E8630F
:10E760001928F2D32C220A54401C2E64E863463048
:10E7700068648446EF6B0AE073482A6CC830805C9A
:10E78000002806D0C855521C7F1CEF632A646745D9
:10E79000F2D37A492C20C8550A217F1CE86D00F07D
:10E7A0003FFB764B3031DA19009291700A2100F06C
:10E7B00037FB009A303151700A2100F031FB6F486D
:10E7C0003031C1556D492C20FF1CC8550A217F1CD2
:10E7D000286E00F025FB694B3031DA1900929170F8
:10E7E0000A2100F01DFB009A303151700A2100F01F
:10E7F00017FB624B303100E019E0D955FF1CEF6385
:10E80000E862781E28643A4619465048FBF74EFFE6
:10E81000E86204207D272874FF000120FEF734F809
:10E820003846FCF71FFD287C0828F6D3EE75287EB5
:10E8300000281CD02E740120FEF726F8287C04281E
:10E84000F9D3FCF7B9FF4D494048EA6BFBF72EFFBF
:10E85000E86204207D272874FF000120FEF714F8E9
:10E860003846FCF7FFFC287C0828F6D32E76687E15
:10E87000002865D07F2000046867FCF759FF3848FE
:10E88000FCF7F0FC304F2E643237EE63E86B3E54F9
:10E89000401CE8637F28F9D3EE633349E86B1A31F3
:10E8A0000E54401CE8630528F7D3EE632649E86B55
:10E8B000D7310E54401CE8630F28F7D3EE6322498A
:10E8C000E86BC8310E54401CE8633C28F7D320495C
:10E8D000EE63E86B0A5C3B2A03D0401CE8636428C3
:10E8E000F7D3401C2E64E863E86B0A5C2C2A06D040
:10E8F000401CE863286C401C28641428F4D3E86B9F
:10E900002E64401C6E64E8631148EB6BC15C286C9C
:10E910003B29395405D05B1C401CEB6328646428F8
:10E92000F2D3286C7F210904401C69672864C0B2B7
:10E93000FCF7DAFE0A48FCF795FC7F2000041FE094
:10E940007BE0000050C80000CB060020000007401C
:10E95000BF00002041542B434F50533F00000000A4
:10E96000881300009CE4000090000020BCB600006A
:10E9700041542B43474154543D300000490300208B
:10E9800068677F20FDF74EF8EE6305202E6468640B
:10E99000FE48E96B8C467A5C296C2C2A7ED0425466
:10E9A0006246521C491CEA632964696C491E696409
:10E9B000EFD119202E646864E86BF549401CE863C8
:10E9C000E86B84463A5C286C2C2A68D00A5462466C
:10E9D000521C401CEA632864686C401E6864EFD1D6
:10E9E0003C202E646864E86BE949401C0F39E863F9
:10E9F000E86B84463A5C286C3B2A7DD00A54624618
:10EA0000521C401CEA632864686C401E6864EFD1A5
:10EA1000E04800F0D9FCE0480D270760FF20F53002
:10EA2000FCF720FCDD4800F0CFFCDB480760FF204E
:10EA3000F530FCF717FC6E76EE77A87E00284AD0FA
:10EA4000D74AEE63E86B115C552903D0401CE8639C
:10EA50006428F7D301463531505C30385054501893
:10EA60004378491C303B43708378303B8370C378D4
:10EA7000303BC370505C0A235843491C535C491C0B
:10EA800018180A235843535C891C1818E865505C11
:10EA90000A2330385843491C535C01E034E035E028
:10EAA00030381818491C0A23E9635843515C303840
:10EAB0000818E862BB4F28663846FCF745FEFF2081
:10EAC000F530FCF7CFFB3846FEF7E6F9FF20F530CE
:10EAD000FCF7C8FBAE76207A002806D0FEF7C4F912
:10EAE00006202872FEF7F4FA2672E87E002806D087
:10EAF000FEF7BAF92E7501E00AE0F1E0EE76FF20AC
:10EB0000F530FCF7AFFB4AE5465452E70E5467E791
:10EB10000E547DE7FCF719FDA3484069002801D099
:10EB2000AE713CE5A8790028EDD10120A87136E549
:10EB3000012036E5A879012800D00020617908433A
:10EB400060D09948C0380660E87F002802D01A20BB
:10EB500028774BE0032028777F20000468677F2018
:10EB6000FCF760FFEE630520884B2E6468648848DC
:10EB7000E96BA538425C2C2A53D0286C491C1A54E6
:10EB8000401CE9632864686C401E6864EFD119205A
:10EB90002E646864E86B7E4B401CE8637C48E96B3C
:10EBA000A538425C2C2A3FD0286C491C1A54401CC2
:10EBB000E9632864686C401E6864EFD13C202E64D1
:10EBC0006864E86B724A401C0F3AE8637048E96B6E
:10EBD000A538435C286C3B2B29D01354491C401C9E
:10EBE000E9632864686C401E6864EFD1FCF75FFF3E
:10EBF0006D490120C03908606E652865AE77667181
:10EC00000220A871A87F697F084267D0FFF75AF8F1
:10EC10006548C0380660E87F00280AD01A202877A7
:10EC200053E0296C5E54B2E7296C5E54C6E7165473
:10EC3000DCE7032028777F20000468677F20FCF74B
:10EC4000F1FEEE630520514B2E6468645048E96B79
:10EC5000A538425C2C2A55D0286C491C1A54401CFB
:10EC6000E9632864686C401E6864EFD119202E6443
:10EC70006864E86B464B401CE8634548E96BA5387F
:10EC8000425C2C2A41D0286C491C1A54401CE96370
:10EC90002864686C401E6864EFD13C202E64686470
:10ECA000E86B3B4A401C0F3AE8633948E96BA538EA
:10ECB000435C286C3B2B2BD01354491C401CE9634C
:10ECC0002864686C401E6864EFD1FCF7F0FE36499A
:10ECD0000120C03908606E652865AE77FF20F530E9
:10ECE000FCF7C0FAE879030000F095FB060A090872
:10ECF000070605041EE71BE70CE764E453E424E47D
:10ED0000FFF705FB296C5E54B0E7296C5E54C4E73D
:10ED10001654DAE7F8B51D4800279A38C76423A0CF
:10ED200000F052FB7D20C000FCF79CFA1A4C222513
:10ED3000256021A000F048FB25600D2626601348C1
:10ED40009A38C76419A000F03FFB7D20C000FCF793
:10ED500089FA25601AA000F037FB25602C2020607E
:10ED6000312020607D20C000FCF77CFA266017A0CF
:10ED700000F02AFB2660174C2046FCF773FA204669
:10ED8000FCF770FA2046FCF76DFAF8BDAA000020E7
:10ED9000A2070020BCB600000000074070E9000098
:10EDA000BF00002000407E004049004041542B51EC
:10EDB0004C42534346473D00746F6B656E00000044
:10EDC0006C61746F726465720000000041542B51D5
:10EDD0004C42530010270000C106C90E0120884094
:10EDE0000C490860704710B559210B48162288233A
:10EDF0000160026003600468002CF9D010BD07496F
:10EE00002E22CA6048600120086108690028FCD1F0
:10EE10007047000000E100E00001004000C0004039
:10EE200030B50B46014600202022012409E00D46A2
:10EE3000D5409D4205D31D469540491B254695402A
:10EE400040191546521E002DF1DC30BD03460B4320
:10EE50009B0703D009E008C9121F08C0042AFAD290
:10EE600003E00B780370401C491C521EF9D2704716
:10EE7000F0B51FB40646002082B00546402401913B
:10EE800000901BE0019922460F46304600F008FA38
:10EE9000049A059B801A994110D3104619462246C0
:10EEA00000F0EEF9361A8F41019722460120002129
:10EEB000009F00F0E5F938184D4100902046641E8F
:10EEC0000028DFDC019B00982946324607B0F0BDE0
:10EED000F0B507460846584087B0C00F0490480078
:10EEE0000E46590040084908BC1A884105D23846E8
:10EEF00031461E4617460B4602465800400810434E
:10EF00004CD0300D039040055900400D490D05903F
:10EF1000401A0290402872DA18030121000B0905FB
:10EF20000843019004980092002805D001995242AC
:10EF30000020884100920190029840210A1A01990C
:10EF4000009800F09DF905460C466B4607CB00F093
:10EF5000B8F9C0197141039A0E0D0023D717564016
:10EF60001A467A40164344D0049A002A2DD0029AB9
:10EF7000012A039A15DC1205C01A914101263605B3
:10EF8000001C7141D20F059ED20700930192029698
:10EF90002A46234600F0B5F907B0F0BD38463146A1
:10EFA000FAE71605224A0F46B218C01AB7410121E6
:10EFB0000905001C4F4100187F411146181879417E
:10EFC000E20F10436D19644113E0E2076D08154329
:10EFD0006408C2071443039A01261205C01A91411E
:10EFE0003605001C7141CE07400830434908C0185F
:10EFF00051412A46234600F077F9CDE7FFE7049810
:10F0000001224000C117121A00238B410498314697
:10F01000C417381AA141EEE730B40124E407634075
:10F0200030BC55E730B40124E407614030BC4FE701
:10F030000000E0FFF0B51FB488B00B9909980024D8
:10F0400048400999C00F490049080991C0070B9928
:10F050000090490049080B9109990898A646084371
:10F060001CD00B990A98084318D009980124400035
:10F07000420D4800410D099824050003000B204370
:10F0800009900B980003000B20430B9050181C496B
:10F090004018002201901446104605E00020014669
:10F0A0000DB0F0BD032801DA034600E003239C46BF
:10F0B000C11A0AAE0AE05F0008ADED5B4F00F75BD6
:10F0C0007D430027AA187C41491C5B1E6145F2DD87
:10F0D000410004AB5A522104120C0A43240C401C78
:10F0E0000828DFDB0198029000997046019100909A
:10F0F000059B049A0799069800F003F9D0E70000F1
:10F100000DFCFFFFF0B50C465C4085B0E40FE40752
:10F1100003944C00002664085900944649080246AE
:10F120000296224321D062460A431ED06200570D48
:10F130004A000E032303550D012402462C492405E1
:10F14000781B1B0B360B4018234326436146009067
:10F150001C46501AB44103D30098401C009002E0B2
:10F16000921800985B41002803DA0020014605B0A0
:10F17000F0BD0020012109050746864611E06446DE
:10F180001D46141BB54106D36546521BB341744658
:10F1900007430C43A646CD07400849082843921868
:10F1A0005B4105460D43EAD11046184313D0604633
:10F1B000194650407140084306D06046101AB341CA
:10F1C00006D20122002306E000220123DB0702E031
:10F1D0000122D2435310009874460105381C614146
:10F1E000029C039D0019694100F07EF8BFE7000012
:10F1F000FD0300004A0009030123090B1B05194305
:10F200000A4B10B5520D9A4202DA0020014610BD99
:10F21000064B34339A4203DC9A1A00F041F810BDD1
:10F22000034BD21800F02CF810BD0000FF030000C3
:10F23000CDFBFFFF10B5002904DB0124E4074042A9
:10F240008C412146002B04DB1C460123DB07524284
:10F25000A341994200D1904210BD0000064C012507
:10F26000064E05E0E36807CC2B430C3C984710346E
:10F27000B442F7D3FAF728FF300201005002010030
:10F2800010B5202A04DB0146203A9140002010BD31
:10F29000914020239C1A0346E3401943904010BD3F
:10F2A00010B5202A04DB0846203AD040002110BDCA
:10F2B0000B46D340D0402024A21A9140084319465F
:10F2C00010BD10B5202A06DBCB170846203A1041A6
:10F2D000C1170B4306E00B461341D0402024A21A6D
:10F2E00091400843194610BD10B5002B08DA0024E0
:10F2F000401C614192185B411A4301D14008400013
:10F3000010BDF0B51FB482B005460C0003D008460E
:10F3100000F06AF802E000F067F820300246009042
:10F3200021462846FFF7ACFF049B059A04460F468A
:10F3300018431143084314D0184610431BD00098BB
:10F3400040210A1A18460599FFF7AAFF05460E46FE
:10F35000009A05990498FFF793FF084305D0012010
:10F3600004E02046394607B0F0BD0020C117054330
:10F370000E432C43374300990E986305401A7905D4
:10F38000E40A00220C43FD0A0A3002D5002001469F
:10F39000E9E70105101969410C9C0D9D00196941AF
:10F3A000FFF7A2FFDFE700000FB410B503A9044B7D
:10F3B000044A029800F01AFB10BC08BC04B01847BD
:10F3C00041A200000C0000200FB410B503A9044BAB
:10F3D000044A029800F0F6F810BC08BC04B01847C4
:10F3E00041A200000C0000202021020C01D01021BD
:10F3F0001046020A01D010460839020901D0104611
:10F40000091F820801D01046891E420801D0881EBB
:10F410007047081A704730B47446641E2578641C1F
:10F42000AB4200D21D46635D5B00E31830BC184759
:10F4300002E008C8121F08C1002AFAD170477047BD
:10F44000002001E001C1121F002AFBD1704700001B
:10F45000F0B51FB486B00998089A030D0021024345
:10F4600014D05148514A18185043051411980128D6
:10F4700010981AD0281A401C00264D4F4D4900966E
:10F4800001910490002812DA444211E011980124FD
:10F4900049A3012801D11098C1430698119A8460AC
:10F4A0000360C26041600BB0F0BD4042E4E7044637
:10F4B000210500203F4A001C51410391029012E0B7
:10F4C000E00707D032463B4601990098FFF7B2FDAE
:10F4D0000191009032463B4610461946FFF7AAFDBF
:10F4E00006460F466410002CEAD10498039B0028BE
:10F4F000029A0999089806DAFFF79CFD019B009A89
:10F50000FFF798FD05E0FFF7FDFD019B009AFFF76F
:10F51000F9FD04460E460022284BFFF78BFE03D868
:10F520000020C043014607E00022254B204631461B
:10F53000FFF7CEFCFFF75EFE102409E0002C0ADB8B
:10F540000A220023FFF794FC079B30321A55641EF1
:10F5500002460A43F2D11122641C079B121B1C199C
:10F56000119B012B03D0012308430ED10AE008436D
:10F5700004D0112010900020119077E71098151AF0
:10F580006D1E0BE01098824202DD00236D1C03E02B
:10F59000824201DA00236D1E002BEED006981199ED
:10F5A0008260C16030C07EE701FCFFFF104D0000AB
:10F5B000000014400000F03F300000000000F04365
:10F5C0000000E03FFFB591B00F460546002606E07B
:10F5D00025280AD0149A139990476D1C761C287818
:10F5E0000028F5D1304615B0F0BD0024009401216B
:10F5F000F34A029400E004436D1C2B780846203B3C
:10F6000098401042F7D128782A280ED00221287875
:10F610000246303A092A15D8009A0A235A43303A4A
:10F6200080180C436D1C0090F1E701CF009000287A
:10F6300005DA012040030443009840420090022074
:10F6400004436D1C28782E2815D1042004436878C3
:10F650006D1C2A280AD101CF6D1C02900BE0029983
:10F660000A225143303940186D1C02902878014617
:10F6700030390929F3D928786C2810D006DC4C28B9
:10F680001AD068280ED06A2817D104E0742813D045
:10F690007A2812D110E00120400504430CE001213A
:10F6A000090501E0032109050C436978814203D172
:10F6B0000120000524186D1C6D1C287803906E280D
:10F6C0001ED00CDC632831D004DC00288AD05828F6
:10F6D00011D1B2E064287BD069280CD178E073287E
:10F6E0002DD004DC6F2870D0702804D1A7E07528D5
:10F6F0006CD078286BD0149A13999047761C62E0EE
:10F700006002400F022807D003280AD00428386876
:10F710000AD006603F1D56E03868F1170660416068
:10F72000F8E738680680F5E70670F3E73878694649
:10F7300008740020487404A80390012003E038688E
:10F7400003900020C0433F1D61070FD5002101E059
:10F750000199491C029A0191914213DA8142F7DB27
:10F76000019A0399895C0029F2D10BE0002101E0A4
:10F770000199491C01918142FADB019A0399895C44
:10F780000029F5D101990098139A401A009021465A
:10F79000149B00F0C1FC01998019461807E00398FA
:10F7A00003990078491C0391149A13999047019882
:10F7B000401E0190401CF2D12146149B139A0098E0
:10F7C00000F08AFC86196D1C09E741E033E034E063
:10F7D0000A200021049005916002410F022905D002
:10F7E00001CFC2179446032905D007E0FF1DFF088B
:10F7F000FF0003CF06E000B2C2179446042902D1ED
:10F8000040B2C1178C4600226146944506DA0A468A
:10F810000021404291418C462D2102E0210504D572
:10F820002B216A461176012103E0E10701D0202156
:10F83000F7E7019154E00A200BE0102009E01020C6
:10F84000049000210420044308200591029003E065
:10F8500008200021059104906002410F022905D083
:10F8600001CF00229446032906D006E0FF1DFF08C1
:10F87000FF0003CF8C4603E080B2042900D1C0B260
:10F880000021019121072BD50399702906D0049AF4
:10F890001021059B4A401A4305D00EE040216A46DC
:10F8A0001176012108E06146014306D030216A4605
:10F8B00011760399517602210191049A0821059B42
:10F8C0004A401A430CD16146014301D1610707D573
:10F8D00030216A461176012101910299491E029157
:10F8E0000399582904D037A103910FA90F910DE076
:10F8F00039A1F9E76146059B049AFFF7B9FA039B22
:10F900008C469B5C0F9A521E0F9213706146014306
:10F91000F0D10F9807A9081A20300390600704D58A
:10F92000012000048443029801E001200290039921
:10F93000884201DD401A00E0002041180290019841
:10F9400009180098401A0090E00306D42146149B41
:10F95000139A009800F0E0FB86190020049008E05C
:10F9600006A9085C149A139990470498401C761CC9
:10F97000049001998842F3DBE0030CD52146149BE7
:10F98000139A009800F0C8FB861904E0149A3020FE
:10F9900013999047761C0299481E02900029F5DCC5
:10F9A00008E00F980F990078491C0F91149A139949
:10F9B0009047761C0399481E03900029F1DCFBE672
:10F9C0000928010030313233343536373839616235
:10F9D00063646566000000003031323334353637F9
:10F9E000383941424344454600000000FFB597B016
:10F9F0000646002518E2252877D100242746FD4930
:10FA0000049400E00443761C32780120203A9040B0
:10FA10000842F7D130782A280ED0022230780146E9
:10FA20003039092916D804990A2359433039401826
:10FA30001443761C0490F1E7189802C804911890BA
:10FA4000002904DA012040030443484204900220C4
:10FA50000443761C30782E2814D104200443707897
:10FA6000761C2A2809D11898761C80C8189009E0BD
:10FA70000A214F43303FC719761C30780146303990
:10FA80000929F5D930786C2810D006DC4C281AD01A
:10FA900068280ED06A2817D104E0742813D07A2879
:10FAA00012D110E00120400504430CE001210905BA
:10FAB00001E0032109050C437178814203D1012043
:10FAC00000052418761C761C3078119066280BD01F
:10FAD00013DC58287DD009DC00287BD04528F6D0DF
